:020000040800F2
:1000000000C0002055780008055E0008075E000863
:10001000095E00080B5E00080D5E0008000000008D
:100020000000000000000000000000000F5E00085B
:10003000115E000800000000135E0008155E000855
:100040009D7800089D7800089D7800089D7800083C
:100050009D7800089D780008215E00082D5E00084C
:10006000395E00084D5E0008595E000871440008C2
:100070009D7800089D7800089D7800089D7800080C
:100080009D7800089D7800089D7800089D780008FC
:100090009D7800089D7800089D780008655E00083E
:1000A0009D7800089D7800089D7800089D780008DC
:1000B0009D78000859550008C95B00089D78000824
:1000C0009D7800089D7800089D7800089D780008BC
:1000D0009D7800089D780008755F0008855F00081E
:1000E000E15E00089D7800089D7800089D78000872
:1000F0009D7800089D7800089D7800089D7800088C
:100100009D7800089D7800089D7800089D7800087B
:100110009D7800089D7800089D7800089D7800086B
:100120009D7800089D7800089D7800089D7800085B
:1001300000000000000000000000000000000000BF
:1001400000000000000000000000000000000000AF
:10015000000000000000000000000000000000009F
:10016000000000000000000000000000000000008F
:10017000000000000000000000000000000000007F
:10018000000000000000000000000000000000006F
:10019000000000000000000000000000000000005F
:1001A000000000000000000000000000000000004F
:1001B000000000000000000000000000000000003F
:1001C000000000000000000000000000000000002F
:1001D000000000000000000000000000000000001F
:0401E0005FF8E0F1F3
:1001E800034613F8012B002AFBD1181A013870476F
:1001F80081F0004102E000BF83F0004330B54FEAD0
:1002080041044FEA430594EA050F08BF90EA020F3C
:100218001FBF54EA000C55EA020C7FEA645C7FEACF
:10022800655C00F0E2804FEA5454D4EB5555B8BFF2
:100238006D420CDD2C4480EA020281EA030382EA63
:10024800000083EA010180EA020281EA0303362DF5
:1002580088BF30BD11F0004F4FEA01314FF4801CC8
:100268004CEA113102D0404261EB410113F0004FDA
:100278004FEA03334CEA133302D0524263EB430391
:1002880094EA050F00F0A780A4F10104D5F1200E2F
:100298000DDB02FA0EFC22FA05F2801841F100018A
:1002A80003FA0EF2801843FA05F359410EE0A5F15E
:1002B80020050EF1200E012A03FA0EFC28BF4CF08F
:1002C800020C43FA05F3C01851EBE37101F0004545
:1002D80007D54FF0000EDCF1000C7EEB00006EEB52
:1002E8000101B1F5801F1BD3B1F5001F0CD34908DC
:1002F8005FEA30004FEA3C0C04F101044FEA445233
:1003080012F5800F80F09A80BCF1004F08BF5FEAB9
:10031800500C50F1000041EB045141EA050130BD99
:100328005FEA4C0C404141EB010111F4801FA4F13C
:100338000104E9D191F0000F04BF01460020B1FA91
:1003480081F308BF2033A3F10B03B3F120020CDAC9
:100358000C3208DD02F1140CC2F10C0201FA0CF0A7
:1003680021FA02F10CE002F11402D8BFC2F1200C0C
:1003780001FA02F120FA0CFCDCBF41EA0C019040C2
:10038800E41AA2BF01EB0451294330BD6FEA04040B
:100398001F3C1CDA0C340EDC04F11404C4F12002F6
:1003A80020FA04F001FA02F340EA030021FA04F308
:1003B80045EA030130BDC4F10C04C4F1200220FA5F
:1003C80002F001FA04F340EA0300294630BD21FA9D
:1003D80004F0294630BD94F0000F83F4801306BF63
:1003E80081F480110134013D4EE77FEA645C18BF57
:1003F8007FEA655C29D094EA050F08BF90EA020FEE
:1004080005D054EA000C04BF1946104630BD91EAE5
:10041800030F1EBF0021002030BD5FEA545C05D1E8
:100428004000494128BF41F0004130BD14F5800427
:100438003CBF01F5801130BD01F0004545F0FE419B
:1004480041F470014FF0000030BD7FEA645C1ABFD0
:10045800194610467FEA655C1CBF0B46024650EA07
:10046800013406BF52EA033591EA030F41F4002133
:1004780030BD00BF90F0000F04BF0021704730B5B9
:100488004FF4806404F132044FF000054FF000018E
:1004980050E700BF90F0000F04BF0021704730B54F
:1004A8004FF4806404F1320410F0004548BF404224
:1004B8004FF000013EE700BF42004FEAE2014FEA79
:1004C80031014FEA02701FBF12F07F4393F07F4F54
:1004D80081F06051704732F07F4208BF704793F057
:1004E8007F4F04BF41F40021704730B54FF460746A
:1004F80001F0004521F000411CE700BF50EA01026D
:1005080008BF704730B54FF000050AE050EA010215
:1005180008BF704730B511F0004502D5404261EB85
:1005280041014FF4806404F132045FEA915C3FF4C6
:10053800D8AE4FF003025FEADC0C18BF03325FEA63
:10054800DC0C18BF033202EBDC02C2F1200300FA14
:1005580003FC20FA02F001FA03FE40EA0E0021FA39
:1005680002F11444BDE600BF70B54FF0FF0C4CF427
:10057800E06C1CEA11541DBF1CEA135594EA0C0FD9
:1005880095EA0C0F00F0DEF82C4481EA030621EA14
:100598004C5123EA4C5350EA013518BF52EA03354F
:1005A80041F4801143F4801338D0A0FB02CE4FF001
:1005B8000005E1FB02E506F00042E0FB03E54FF031
:1005C8000006E1FB03569CF0000F18BF4EF0010E29
:1005D800A4F1FF04B6F5007F64F5407404D25FEA25
:1005E8004E0E6D4146EB060642EAC62141EA5551D8
:1005F8004FEAC52040EA5E504FEACE2EB4F1FD0C1A
:1006080088BFBCF5E06F1ED8BEF1004F08BF5FEA97
:10061800500E50F1000041EB045170BD06F0004649
:1006280046EA010140EA020081EA0301B4EB5C04F6
:10063800C2BFD4EB0C0541EA045170BD41F48011EE
:100648004FF0000E013C00F3AB8014F1360FDEBF13
:10065800002001F0004170BDC4F10004203C35DAEF
:100668000C341BDC04F11404C4F1200500FA05F372
:1006780020FA04F001FA05F240EA020001F0004213
:1006880021F0004110EBD37021FA04F642EB060189
:100698005EEA430E08BF20EAD37070BDC4F10C04B3
:1006A800C4F1200500FA04F320FA05F001FA04F277
:1006B80040EA020001F0004110EBD37041F1000163
:1006C8005EEA430E08BF20EAD37070BDC4F120056E
:1006D80000FA05F24EEA020E20FA04F301FA05F2D6
:1006E80043EA020321FA04F001F0004121FA04F27E
:1006F80020EA020000EBD3705EEA430E08BF20EA4E
:10070800D37070BD94F0000F0FD101F00046400087
:1007180041EB010111F4801F08BF013CF7D041EA09
:10072800060195F0000F18BF704703F0004652000D
:1007380043EB030313F4801F08BF013DF7D043EADE
:100748000603704794EA0C0F0CEA135518BF95EA94
:100758000C0F0CD050EA410618BF52EA4306D1D11B
:1007680081EA030101F000414FF0000070BD50EA3A
:10077800410606BF1046194652EA430619D094EAC4
:100788000C0F02D150EA013613D195EA0C0F05D1AE
:1007980052EA03361CBF104619460AD181EA030102
:1007A80001F0004141F0FE4141F470014FF00000BA
:1007B80070BD41F0FE4141F4780170BD70B54FF055
:1007C800FF0C4CF4E06C1CEA11541DBF1CEA1355D5
:1007D80094EA0C0F95EA0C0F00F0A7F8A4EB0504B7
:1007E80081EA030E52EA03354FEA013100F08880AE
:1007F8004FEA03334FF0805545EA131343EA126377
:100808004FEA022245EA111545EA10654FEA00262B
:100818000EF000419D4208BF964244F1FD0404F5E4
:10082800407402D25B084FEA3202B61A65EB030540
:100838005B084FEA32024FF480104FF4002CB6EBFD
:10084800020E75EB030E22BFB61A754640EA0C007D
:100858005B084FEA3202B6EB020E75EB030E22BFBD
:10086800B61A754640EA5C005B084FEA3202B6EBFE
:10087800020E75EB030E22BFB61A754640EA9C00BD
:100888005B084FEA3202B6EB020E75EB030E22BF8D
:10089800B61A754640EADC0055EA060E18D04FEA4B
:1008A800051545EA16754FEA06164FEAC30343EAEB
:1008B80052734FEAC2025FEA1C1CC0D111F4801FB8
:1008C8000BD141EA00014FF000004FF0004CB6E7B1
:1008D80011F4801F04BF01430020B4F1FD0C88BF50
:1008E800BCF5E06F3FF6AFAEB5EB030C04BFB6EB5B
:1008F800020C5FEA500C50F1000041EB045170BD4E
:100908000EF0004E4EEA113114EB5C04C2BFD4EB7A
:100918000C0541EA045170BD41F480114FF0000EFE
:10092800013C90E645EA060E8DE60CEA135594EA7A
:100938000C0F08BF95EA0C0F3FF43BAF94EA0C0F7D
:100948000AD150EA01347FF434AF95EA0C0F7FF4F2
:1009580025AF104619462CE795EA0C0F06D152EA46
:1009680003353FF4FDAE1046194622E750EA41062A
:1009780018BF52EA43067FF4C5AE50EA41047FF43B
:100988000DAF52EA43057FF4EBAE12E74FF0FF3CA0
:1009980006E000BF4FF0010C02E000BF4FF0010C71
:1009A8004DF804CD4FEA410C7FEA6C5C4FEA430CEA
:1009B80018BF7FEA6C5C1BD001B050EA410C0CBF39
:1009C80052EA430C91EA030F02BF90EA020F00209B
:1009D800704710F1000F91EA030F58BF994208BF02
:1009E80090422CBFD8176FEAE37040F001007047BF
:1009F8004FEA410C7FEA6C5C02D150EA013C07D116
:100A08004FEA430C7FEA6C5CD6D152EA033CD3D060
:100A18005DF8040B704700BF8446104662468C465A
:100A28001946634600E000BF01B5FFF7B7FF00288D
:100A380048BF10F1000F01BD4DF808EDFFF7F4FFB6
:100A48000CBF012000205DF808FB00BF4DF808ED41
:100A5800FFF7EAFF34BF012000205DF808FB00BF64
:100A68004DF808EDFFF7E0FF94BF012000205DF886
:100A780008FB00BF4DF808EDFFF7CEFF94BF01203B
:100A880000205DF808FB00BF4DF808EDFFF7C4FF34
:100A980034BF012000205DF808FB00BF4FEA410287
:100AA80012F5001215D211D56FF47873B3EB6252B8
:100AB80012D94FEAC12343F0004343EA505311F0DF
:100AC800004F23FA02F018BF404270474FF0000071
:100AD800704750EA013005D111F0004008BF6FF0AF
:100AE800004070474FF00000704700BF4FEA4102D6
:100AF800B2F1E04324BFB3F5001CDCF1FE5C0DD974
:100B080001F0004C4FEAC0024CEA5070B2F1004FBD
:100B180040EB830008BF20F00100704711F0804FC0
:100B280021D113F13872BCBF01F00040704741F485
:100B380080114FEA5252C2F11802C2F1200C10FA89
:100B48000CF320FA02F018BF40F001004FEAC1236D
:100B58004FEAD32303FA0CFC40EA0C0023FA02F311
:100B68004FEA4303CCE77FEA625307D150EA0133E7
:100B78001EBF4FF0FE4040F44000704701F00040B7
:100B880040F0FE4040F40000704700BF80F0004095
:100B980002E000BF81F0004142001FBF5FEA41034D
:100BA80092EA030F7FEA226C7FEA236C6AD04FEA4D
:100BB8001262D2EB1363C1BFD21841404840414092
:100BC800B8BF5B42192B88BF704710F0004F40F444
:100BD800000020F07F4018BF404211F0004F41F460
:100BE800000121F07F4118BF494292EA030F3FD02C
:100BF800A2F1010241FA03FC10EB0C00C3F120033F
:100C080001FA03F100F0004302D5494260EB4000CD
:100C1800B0F5000F13D3B0F1807F06D340084FEA38
:100C2800310102F10102FE2A51D2B1F1004F40EB2D
:100C3800C25008BF20F0010040EA03007047490095
:100C480040EB000010F4000FA2F10102EDD1B0FA60
:100C580080FCACF1080CB2EB0C0200FA0CF0AABF55
:100C680000EBC25052421843BCBFD04018437047F3
:100C780092F0000F81F4000106BF80F400000132F9
:100C8800013BB5E74FEA41037FEA226C18BF7FEAD0
:100C9800236C21D092EA030F04D092F0000F08BF12
:100CA8000846704790EA010F1CBF0020704712F0F9
:100CB8007F4F04D1400028BF40F00040704712F138
:100CC80000723CBF00F50000704700F0004343F09D
:100CD800FE4040F4000070477FEA226216BF0846D3
:100CE8007FEA23630146420206BF5FEA412390EA96
:100CF800010F40F4800070474FF0000304E000BF8C
:100D080010F0004348BF40425FEA000C08BF70473C
:100D180043F0964301464FF000001CE050EA010200
:100D280008BF70474FF000030AE000BF50EA010215
:100D380008BF704711F0004302D5404261EB410102
:100D48005FEA010C02BF84460146002043F0B64327
:100D580008BFA3F18053A3F50003BCFA8CF2083A4C
:100D6800A3EBC25310DB01FA02FC634400FA02FC55
:100D7800C2F12002BCF1004F20FA02F243EB02005C
:100D880008BF20F00100704702F1200201FA02FCBE
:100D9800C2F1200250EA4C0021FA02F243EB0200B1
:100DA80008BF20EADC7070474FF0FF0C1CEAD052F5
:100DB8001EBF1CEAD15392EA0C0F93EA0C0F6FD0B6
:100DC8001A4480EA010C400218BF5FEA41211ED094
:100DD8004FF0006343EA501043EA5111A0FB013180
:100DE8000CF00040B1F5000F3EBF490041EAD37155
:100DF8005B0040EA010062F17F02FD2A1DD8B3F1D1
:100E0800004F40EBC25008BF20F00100704790F03F
:100E1800000F0CF0004C08BF49024CEA502040EA91
:100E280051207F3AC2BFD2F1FF0340EAC250704757
:100E380040F400004FF00003013A5DDC12F1190F95
:100E4800DCBF00F000407047C2F10002410021FA07
:100E580002F1C2F1200200FA02FC5FEA310040F11F
:100E6800000053EA4C0308BF20EADC70704792F098
:100E7800000F00F0004C02BF400010F4000F013AD0
:100E8800F9D040EA0C0093F0000F01F0004C02BFCB
:100E9800490011F4000F013BF9D041EA0C018FE73A
:100EA8000CEAD15392EA0C0F18BF93EA0C0F0AD040
:100EB80030F0004C18BF31F0004CD8D180EA010066
:100EC80000F00040704790F0000F17BF90F0004FFF
:100ED800084691F0000F91F0004F14D092EA0C0FE1
:100EE80001D142020FD193EA0C0F03D14B0218BF74
:100EF800084608D180EA010000F0004040F0FE40BA
:100F080040F40000704740F0FE4040F44000704755
:100F18004FF0FF0C1CEAD0521EBF1CEAD15392EAD4
:100F28000C0F93EA0C0F69D0A2EB030280EA010CC4
:100F380049024FEA402037D04FF0805343EA11115D
:100F480043EA10130CF000408B4238BF5B0042F1BB
:100F58007D024FF4000C8B4224BF5B1A40EA0C0060
:100F6800B3EB510F24BFA3EB510340EA5C00B3EB92
:100F7800910F24BFA3EB910340EA9C00B3EBD10F80
:100F880024BFA3EBD10340EADC001B0118BF5FEAD2
:100F98001C1CE0D1FD2A3FF650AF8B4240EBC250FB
:100FA80008BF20F0010070470CF0004C4CEA5020BC
:100FB8007F32C2BFD2F1FF0340EAC250704740F40B
:100FC80000004FF00003013A37E792F0000F00F0FD
:100FD800004C02BF400010F4000F013AF9D040EA7B
:100FE8000C0093F0000F01F0004C02BF490011F40F
:100FF800000F013BF9D041EA0C0195E70CEAD15307
:1010080092EA0C0F08D142027FF47DAF93EA0C0FED
:101018007FF470AF084676E793EA0C0F04D14B02D1
:101028003FF44CAF08466EE730F0004C18BF31F083
:10103800004CCAD130F000427FF45CAF31F000437D
:101048007FF43CAF5FE700BF4FF0FF3C06E000BF16
:101058004FF0010C02E000BF4FF0010C4DF804CD39
:101068004FEA40024FEA41037FEA226C18BF7FEA49
:10107800236C11D001B052EA530C18BF90EA010F4B
:1010880058BFB2EB030088BFC81738BF6FEAE170DA
:1010980018BF40F0010070477FEA226C02D15FEA76
:1010A800402C05D17FEA236CE4D15FEA412CE1D0E2
:1010B8005DF8040B704700BF844608466146FFE7A9
:1010C8000FB5FFF7C9FF002848BF10F1000F0FBD8B
:1010D8004DF808EDFFF7F4FF0CBF012000205DF884
:1010E80008FB00BF4DF808EDFFF7EAFF34BF012009
:1010F80000205DF808FB00BF4DF808EDFFF7E0FFA2
:1011080094BF012000205DF808FB00BF4DF808EDF2
:10111800FFF7D2FF94BF012000205DF808FB00BF55
:101128004DF808EDFFF7C8FF34BF012000205DF837
:1011380008FB00BF4FEA4002B2F1FE4F0FD34FF059
:101148009E03B3EB12620DD94FEA002343F000432C
:1011580010F0004F23FA02F018BF404270474FF0DA
:101168000000704712F1610F01D1420205D110F061
:10117800004008BF6FF0004070474FF00000704714
:101188007BB972B90029BEBF00204FF0004106E0CC
:1011980008BF00281CBF6FF000414FF0FF3000F07F
:1011A8003FB8ADF1080C6DE904CE002909DB002B2E
:1011B8001ADB08F05DFEDDF804E0DDE9022304B087
:1011C8007047404261EB4101002B1BDB08F050FEE9
:1011D800DDF804E0DDE9022304B0404261EB41019F
:1011E800524263EB43037047524263EB430308F0F8
:1011F8003FFEDDF804E0DDE9022304B0404261EB84
:1012080041017047524263EB430308F031FEDDF8B9
:1012180004E0DDE9022304B0524263EB4303704764
:10122800704700BF10B5054C227832B9044B13B192
:101238000448AFF300800123237010BDB8030020D9
:10124800000000002CA1000808B5034B1BB103499E
:101258000348AFF3008008BD00000000BC03002075
:101268002CA10008044B0022DA61044A136943F0F8
:101278000103136101807047B0060020002002407E
:10128800144BDB6813F0100305D0134AD36943F0FD
:101298000203D36110230F4AD26812F0040F06D05C
:1012A8000D49CA6942F00102CA6143F00403094AC0
:1012B800D26912F0010F09D00749CA6942F0040245
:1012C800CA610449CA6922F00102CA61014AD360AD
:1012D800704700BF00200240B0060020074B1B6982
:1012E80013F0800F07D0054B054A5A6002F1883287
:1012F8005A60002070470120704700BF002002405C
:1013080023016745034A136943F0800313610020F2
:10131800704700BF0020024038B5044601F088F944
:101328000546164BDB6813F0010F0AD0B4F1FF3FF6
:10133800F7D024B101F07CF9401BA042F1D9032079
:101348001BE00E4BDB6813F0200F02D00B4B202262
:10135800DA600A4BDB6813F0100F0BD1074BDB691F
:1013680013F0010F06D1054BDB6813F0040F01D110
:10137800002002E0FFF784FF012038BD0020024072
:101388002DE9F843234C247E012C41D01E4690467B
:101398000F4604461F4B01221A764CF25030FFF7D5
:1013A800BBFF034670BB012C29D0022C24D04FF080
:1013B80004091C464C4525D22101C1F12002A1F1A6
:1013C800200328FA01F106FA02F2114326FA03F380
:1013D800194389B207EB4400FFF744FF4CF2503041
:1013E800FFF79AFF0C4B1D6925F001051D610346A7
:1013F80040B90134E4B2DDE74FF00209D9E74FF014
:101408000109D6E7034A002111761846BDE8F8839A
:101418000223FAE7B00600200020024082B0084B01
:101428001B68084AA2FB03235B0A00FB03F0019038
:1014380000BF019B5A1E0192002BF9D102B07047E0
:1014480000000020D34D621070B582B004460368D6
:1014580013F0010F2CD0AB4B5B6803F00C03042B8B
:101468001DD0A84B5B6803F00C03082B12D06368EF
:10147800B3F5803F41D0002B55D103F1804303F5EC
:1014880004331A6822F480321A601A6822F480221F
:101498001A6037E09B4B5B6813F4803FE7D0994BA9
:1014A8001B6813F4003F03D06368002B00F0AE8183
:1014B800236813F0020F75D0924B5B6813F00C0F82
:1014C8005FD0904B5B6803F00C03082B54D0236962
:1014D800002B00F089808C4B01221A6001F0A8F8DB
:1014E8000546884B1B6813F0020F74D101F0A0F871
:1014F800401B0228F5D903208DE1824A136843F482
:1015080080331360636843B301F092F805467D4B5E
:101518001B6813F4003FCBD101F08AF8401B642804
:10152800F5D9032077E1B3F5A02F09D0754B1A68D8
:1015380022F480321A601A6822F480221A60E1E7E5
:1015480003F18043A3F53C331A6842F480221A6001
:101558001A6842F480321A60D4E701F069F8054647
:10156800684B1B6813F4003FA2D001F061F8401BE0
:101578006428F5D903204EE1624B5B6813F4803F81
:10158800A5D1604B1B6813F0020F03D02369012B10
:1015980040F03E815B4A136823F0F803616943EA2F
:1015A800C1031360236813F0080F32D0A369002B1E
:1015B8005BD0564B01221A6001F03AF80546514BB0
:1015C8005B6A13F0020F21D101F032F8401B0228A8
:1015D800F5D903201FE14B4A136823F0F80361692A
:1015E80043EAC1031360DDE7474B00221A6001F0AC
:1015F8001FF80546434B1B6813F0020FD2D001F0C9
:1016080017F8401B0228F5D9032004E10120FFF751
:1016180005FF236813F0040F00F09880394BDB694D
:1016280013F0805F33D1374BDA6942F08052DA61C8
:10163800DB6903F080530193019B0125344B1B6840
:1016480013F4807F25D0E368012B36D0002B4CD1D2
:1016580003F1804303F504331A6A22F001021A6287
:101668001A6A22F004021A622CE0284B00221A603F
:1016780000F0DEFF0546234B5B6A13F0020FC8D06B
:1016880000F0D6FF401B0228F5D90320C3E000254F
:10169800D4E71F4A136843F48073136000F0C8FF4F
:1016A80006461B4B1B6813F4807FCCD100F0C0FFAB
:1016B800801B6428F5D90320ADE0124A136A43F071
:1016C80001031362E3687BB300F0B2FF06460D4BDB
:1016D8001B6A13F0020F38D100F0AAFF801B41F2F9
:1016E80088339842F3D9032095E0052B12D0054B97
:1016F8001A6A22F001021A621A6A22F004021A62B5
:10170800E0E700BF0010024000004242800442426D
:1017180000700040424B1A6A42F004021A621A6AC8
:1017280042F001021A62CDE700F082FF06463C4B08
:101738001B6A13F0020F08D000F07AFF801B41F2F9
:1017480088339842F3D9032065E0E5B9E369002BB3
:1017580060D0334A526802F00C02082A5DD0022B8E
:1017680017D0304B00221A6000F062FF04462C4B61
:101778001B6813F0007F47D000F05AFF001B0228B7
:10178800F5D9032047E0264AD36923F08053D36173
:10179800DCE7244B00221A6000F04AFF0546204B84
:1017A8001B6813F0007F06D000F042FF401B0228A0
:1017B800F5D903202FE0236AB3F5803F1AD01849E2
:1017C8004B6823F47413226A606A024313434B6024
:1017D800144B01221A6000F02BFF0446104B1B68C3
:1017E80013F0007F0ED100F023FF001B0228F5D96B
:1017F800032010E00A4A536823F40033A1680B431E
:101808005360DCE7002006E0002004E0012002E04D
:10181800012000E0002002B070BD0120FBE700BFFE
:10182800001002406000424210B487B0164C94E8A1
:101838000F000DF1180C0CE90F00238AADF80430E5
:10184800124B5B6803F00C02082A03D0104807B05B
:1018580010BC7047C3F38342624412F8100C13F4AF
:10186800803F0CD0094B5B68C3F34043634413F8D3
:10187800142C074BB3FBF2F300FB03F0E7E7054B2F
:1018880003FB00F0E3E700BF48A100080010024096
:1018980000127A0000093D005A4B1B6803F0070349
:1018A8008B420BD2574A136823F007030B4313608C
:1018B800136803F007038B4240F09D8070B50368FE
:1018C80013F0020F06D0504A536823F0F0038468DF
:1018D800234353600D460446036813F0010F52D0AA
:1018E8004368012B23D0022B28D0474A126812F0F4
:1018F800020F00F0828044494A6822F00302134331
:101908004B6000F095FE06466368012B1DD0022B44
:101918002AD03D4B5B6813F00C0F34D000F088FEE2
:10192800801B41F288339842F3D9032062E0364A9B
:10193800126812F4003FDED101205BE0324A1268DF
:1019480012F0007FD7D1012054E02F4B5B6803F0E1
:101958000C03042B17D000F06BFE801B41F2883378
:101968009842F2D9032045E0274B5B6803F00C034B
:10197800082B08D000F05CFE801B41F288339842A7
:10198800F2D9032036E01F4B1B6803F00703AB4274
:101998000AD91C4A136823F007032B431360136802
:1019A80003F00703AB422AD1236813F0040F06D0D3
:1019B800154A536823F4E063E1680B4353602368D6
:1019C80013F0080F07D0104A536823F460532169B5
:1019D80043EAC1035360FFF727FF0B4B5B68C3F370
:1019E80003130A4AD35CD840094B1860002000F062
:1019F800EFFD002070BD012070470120FAE70120AB
:101A0800F8E700BF002002400010024078A100085B
:101A180000000020014B1868704700BF000000203C
:101A280008B5FFF7F7FF044B5B68C3F30223034ACB
:101A3800D35CD84008BD00BF0010024088A1000850
:101A480008B5FFF7E7FF044B5B68C3F3C223034AFB
:101A5800D35CD84008BD00BF0010024088A1000830
:101A680030B4036A23F001030362056A426884699B
:101A780024F073040B681C4325F002058B682B4384
:101A8800104DA84203D005F50065A84205D123F002
:101A98000803CD682B4323F004030A4DA84203D062
:101AA80005F50065A84205D122F440724D69154339
:101AB8008A692A43426084614A684263036230BC8F
:101AC800704700BF002C014030B4036A23F48073D0
:101AD8000362036A4268C46924F073040D682C43E6
:101AE80023F400738D6843EA0523124DA84203D0FE
:101AF80005F50065A84206D123F40063CD6843EAE2
:101B0800052323F480630B4DA84203D005F5006537
:101B1800A84207D122F440524D6942EA05128D6964
:101B280042EA05124260C4614A68C263036230BC7B
:101B3800704700BF002C014030B4036A23F480537F
:101B48000362036A4468C26922F4E6420D6842EA05
:101B5800052223F400538D6843EA0533094DA84252
:101B680003D005F50065A84204D124F480444D69EA
:101B780044EA85144460C2614A680264036230BC66
:101B8800704700BF002C014010B4036A046A24F0B7
:101B980001040462846924F0F00444EA021223F088
:101BA8000A030B438261036210BC704710B4036AD6
:101BB80023F0100303628469036A24F4704444EA3E
:101BC800023223F0A00343EA01138261036210BCCE
:101BD800704710B4846824F47F4442EA03230B431B
:101BE8002343836010BC704710B50468A26822F0D4
:101BF80070024B68134323F007030A681343A3607A
:101C08004B68502B1ED00AD9602B21D0702B05D1E0
:101C18000B698A68C9680068FFF7DBFF10BD402BB5
:101C2800FCD103681C6A1A6A22F001021A6202686F
:101C3800936923F0F003096943EA01139361036888
:101C48001C62EBE70A6989680068FFF79DFFE5E712
:101C58000A6989680068FFF7A9FFDFE77047022370
:101C680080F83D300268136843F0010313600123D4
:101C780080F83D3000207047704738B590F83C3008
:101C8800012B18D00446012580F83C50022380F827
:101C98003D30FFF7A9FF2268D36823F04003D360E3
:101CA8002268D36823F48043D36084F83D50002031
:101CB80084F83C0038BD0220FCE700000368244A91
:101CC800904212D002F5006290420ED0B0F1804FDF
:101CD8000BD0A2F59832904207D002F5806290426C
:101CE80003D002F58062904203D123F070034A6862
:101CF8001343174A904212D002F5006290420ED068
:101D0800B0F1804F0BD0A2F59832904207D002F57F
:101D18008062904203D002F58062904203D123F49E
:101D28004073CA68134323F080034A69134303606E
:101D38008B68C3620B688362054B984203D003F536
:101D48000063984201D10B69036301234361704723
:101D5800002C0140B0B110B5044690F83D3063B195
:101D6800022384F83D30214651F8040BFFF7A6FF03
:101D7800012384F83D30002010BD80F83C30FFF787
:101D88006DFFEDE701207047B0B110B5044690F83B
:101D98003D3063B1022384F83D30214651F8040BED
:101DA800FFF78CFF012384F83D30002010BD80F838
:101DB8003C30FFF761FFEDE70120704730B4036A5C
:101DC80023F010030362036A4468826922F4E6423E
:101DD8000D6842EA052223F020038D6843EA0513C3
:101DE800114DA84203D005F50065A84206D123F09D
:101DF8008003CD6843EA051323F040030A4DA84247
:101E080003D005F50065A84207D124F440644D6964
:101E180044EA85048D6944EA8504446082614A681D
:101E28008263036230BC7047002C014038B590F8DB
:101E38003C30012B66D00D460446012380F83C3027
:101E4800022380F83D300C2A1AD8DFE802F007197F
:101E58001919201919193419191947000068FFF7B9
:101E6800FFFD2268936943F0080393612268936930
:101E780023F0040393612268936929690B439361F2
:101E8800012384F83D30002084F83C0038BD006808
:101E9800FFF794FF2268936943F400639361226813
:101EA800936923F48063936122689369296943EAFB
:101EB80001239361E4E70068FFF706FE2268D3690F
:101EC80043F00803D3612268D36923F00403D36184
:101ED8002268D36929690B43D361D1E70068FFF70A
:101EE8002BFE2268D36943F40063D3612268D36967
:101EF80023F48063D3612268D369296943EA012303
:101F0800D361BDE70220C1E710B4012303FA01F44D
:101F1800036A23EA04030362036A8A4013430362E1
:101F280010BC704710B5044601220068FFF7ECFFAB
:101F38002368094A934203D002F50062934203D111
:101F48005A6C42F400425A642268136843F0010351
:101F58001360002010BD00BF002C014010B4042302
:101F680003FA01F4036A23EA04030362036A8A405A
:101F78001343036210BC704710B50446042200687E
:101F8800FFF7ECFF2268536C43F400435364226864
:101F9800136843F001031360002010BD90F83C3033
:101FA800012B25D0012380F83C30CB6823F4407303
:101FB8008A68134323F480634A68134323F4006355
:101FC8000A68134323F480530A69134323F4005324
:101FD8004A69134323F480438A69134323F4004373
:101FE800134302685364002380F83C301846704756
:101FF8000220704790F83C30012B22D030B40122E7
:1020080080F83C20022380F83D300468636823F0A0
:1020180070036360046863680D682B436360046839
:10202800A36823F08003A3600468A36849680B438E
:10203800A36080F83D20002380F83C30184630BC6F
:102048007047022070470000034690F82420012AB8
:1020580020D0012280F824200268906810F0010F37
:1020680007D10D48806810F0010F02D10B48824259
:1020780008D09A6A42F020029A620120002283F86E
:1020880024207047506820F4702009680843506085
:102098000020F3E702207047002801400024014097
:1020A800074AD36823F4E0631B041B0C000200F406
:1020B800E060184340F0BF6040F40030D0607047E3
:1020C80000ED00E030B4174BDB68C3F30223C3F123
:1020D8000704042C28BF04241D1D062D01D9033B29
:1020E80000E000234FF0FF3505FA04F421EA04016B
:1020F800994005FA03F322EA03031943002809DB90
:102108000901C9B200F1604000F5614080F8001390
:1021180030BC704700F00F000901C9B2024B1954D6
:10212800F6E700BF00ED00E014ED00E000F01F024C
:10213800400901239340024A42F82030704700BF0B
:1021480000E100E0BFF34F8F0549CA6802F4E0627E
:10215800044B1343CB60BFF34F8F00BFFDE700BFB5
:1021680000ED00E00400FA050138B0F1807F0AD2E2
:10217800064B5860064AF02182F823100020986028
:1021880007221A6070470120704700BF10E000E086
:1021980000ED00E0042805D0054A136823F0040385
:1021A80013607047024A136843F0040313607047D2
:1021B80010E000E0704708B5FFF7FCFF08BD00001D
:1021C800064B0022DA61064B1A6942F004021A61D2
:1021D8001A6942F040021A61704700BFB006002039
:1021E80000200240064B0022DA61064B1A6942F0D1
:1021F80002021A6158611A6942F040021A61704776
:10220800B006002000200240264B1B7E012B46D042
:1022180070B50E460546234B01221A760368022B39
:1022280020D04CF25030FFF777F890BB4FF0FF33D7
:102238003360AC680121EA68AB6803EBC223A342B0
:1022480028D92046FFF7CEFF4CF25030FFF764F84C
:10225800154A136923F0020313610146B8B904F55E
:102268000064E8E74CF25030FFF756F808B1012156
:1022780010E00120FFF7A4FF4CF25030FFF74CF8B4
:102288000146094A136923F00403136102E034602C
:1022980000E00121034B00221A76084670BD022196
:1022A80008467047B006002000200240F0B482B013
:1022B80000263546A6E0002B5ED0012B10D1CE6853
:1022C8000EE06E4FBB4257D04ED96D4FBB4253D034
:1022D80007F58037BB424FD0A7F58017BB424BD0DC
:1022E800FF2A5DD88446FF2A5DD8AC00DCF80030B0
:1022F8000F27A74023EA070306FA04F42343CCF880
:1023080000304B6813F0805F7BD05E4B9C6944F0D3
:1023180001049C619B6903F001030193019BAC08D4
:10232800A71C594B53F827C005F003039F000F2340
:10233800BB402CEA030C554B98423AD003F5806316
:10234800984278D003F58063984276D003F580638D
:10235800984274D003F58063984272D003F5806385
:10236800984224D0062325E0A7F58017BB4203D066
:1023780007F58037BB42B3D18B687BB1012B08D0FE
:1023880044610826ACE7CE680836A9E7CE680C3663
:10239800A6E704610826A3E70026A1E704269FE72D
:1023A80000F1040C9FE7A5F10804A4009EE70523AB
:1023B80000E00023BB4043EA0C030234324F47F8E5
:1023C80024304B6813F4803F3DD0314C23681343CD
:1023D80023604B6813F4003F3BD02D4C63681343D4
:1023E80063604B6813F4801F39D0294CA3681343EA
:1023F800A3604B6813F4001F37D0254CE3681A43D9
:10240800E26001350F2D36D80124AC400A6822401D
:102418009442F6D14B68122BB8D03FF652AF022B3C
:10242800B1D07FF648AF032BB6D0112B7FF458AF4D
:10243800CE68043654E70123BCE70223BAE7032336
:10244800B8E70423B6E7124C236823EA02032360A3
:10245800BFE70F4C636823EA02036360C1E70C4CD3
:10246800A36823EA0203A360C3E7094CE36823EAED
:102478000202E260C5E702B0F0BC7047000021101C
:102488000000311000100240000001400008014027
:10249800000401408368194201D0012070470020E0
:1024A80070470AB101617047090401617047C36848
:1024B8005940C1607047000070B582B00446036897
:1024C80013F0010F34D03E4BDB6913F0805F48D125
:1024D8003B4BDA6942F08052DA61DB6903F08053E2
:1024E8000193019B0125374B1B6813F4807F3AD079
:1024F800334B1B6A13F4407311D0626802F44072C4
:102508009A420CD02E4A136A23F440702E490126B1
:102518000E6000260E60106213F0010F37D1284AB2
:10252800136A23F4407361680B431362002D3FD193
:10253800236813F0020F06D0214A536823F440435E
:10254800A1680B435360236813F0100F35D01C4A61
:10255800536823F4800361690B435360002002B081
:1025680070BD0025BFE7174A136843F480731360F2
:1025780000F05EF80646134B1B6813F4807FB7D152
:1025880000F056F8801B6428F5D90320E7E700F02F
:102598004FF806460A4B1B6A13F0020FBFD100F032
:1025A80047F8801B41F288339842F3D90320D6E7D5
:1025B800D36923F08053D361BAE70020CFE700BF87
:1025C8000010024000700040400442427047000082
:1025D80010B50446074B1868074BA3FB0030800969
:1025E800FFF7C2FD002221464FF0FF30FFF76AFDDA
:1025F800002010BD00000020D34D621008B5074A26
:10260800136843F0100313600320FFF749FD00200F
:10261800FFF7DEFFFFF7DAFF002008BD00200240C9
:10262800024A136801331360704700BFD0060020C8
:10263800014B1868704700BFD006002030B583B042
:102648000190FFF7F5FF0546019CB4F1FF3F00D06C
:102658000134FFF7EDFF401BA042FAD303B030BDB1
:102668007047000030B482B00023019390F8243002
:10267800012B00F08B800246012380F824304B6840
:10268800062B29D80568686B03EB8303053B1F24D9
:102698009C4020EA04000C6804FA03F303436B63CC
:1026A8000B68092B38D91568E86803EB43031E3B10
:1026B80007249C4020EA04008C6804FA03F30343CF
:1026C800EB600B68103B012B34D90020002382F803
:1026D800243002B030BC70470C2B0ED80568286B2C
:1026E80003EB8303233B1F249C4020EA04000C686F
:1026F80004FA03F303432B63D2E70568E86A03EBA4
:102708008303413B1F249C4020EA04000C6804FA20
:1027180003F30343EB62C3E71568286903EB43033C
:1027280007249C4020EA04008C6804FA03F303435E
:102738002B61C6E713681648834205D0936A43F0B5
:10274800200393620120C1E7986810F4000F1BD1A1
:10275800986840F4000098600B68102B01D00020A6
:10276800B4E70C4B1B680C49A1FB03139B0C03EB50
:1027780083035900019102E0019B013B0193019BF6
:10278800002BF9D10020A1E700209FE70220A0E755
:10279800002401400000002083DE1B4330B583B0D5
:1027A8000023019303689A6812F0010F2DD19A68EB
:1027B80042F001029A60164B1B68164AA2FB0323DB
:1027C8009B0C0193019B1BB1019B013B0193F9E712
:1027D8000446FFF72DFF054623689B6813F0010F99
:1027E80011D1FFF725FF401B0228F5D9A36A43F052
:1027F8001003A362E36A43F00103E362002384F851
:102808002430012002E0002000E0002003B030BDA9
:102818000000002083DE1B4390F82430012B6BD08E
:1028280010B50446012380F82430FFF7B7FF0246AD
:1028380000285CD1A36A23F4407323F0010343F416
:102848008073A36221682E4B994228D0A36A23F48F
:102858008013A3624B6813F4806F05D0A36A23F436
:10286800405343F48053A362A36A13F4805F2CD0CF
:10287800E36A23F00603E362002384F82430236824
:102888006FF0020119602368996801F46021B1F5BD
:10289800602F1DD0996841F4801199602AE0A3F552
:1028A80080635B6813F4702FD0D0A36A43F480135D
:1028B800A362144B5B6813F4806FD5D0A36A23F42A
:1028C800405343F48053A362CEE70023E362D3E787
:1028D8000B498B4204D0996841F4A001996009E042
:1028E800A1F58061496811F4702FD3D1F3E7002373
:1028F80084F82430104610BD02221046704700BFED
:10290800002801400024014038B503689A6812F095
:10291800010F01D1002038BD04469A6822F0010257
:102928009A60FFF785FE054623689B6813F0010F40
:102938000ED0FFF77DFE401B0228F5D9A36A43F0AD
:102948001003A362E36A43F00103E3620120E2E7B4
:102958000020E0E7002800F08680F8B50446836A86
:10296800002B50D02046FFF7CFFFA36A13F01003C7
:1029780073D1002871D1A26A22F4885222F002028F
:1029880042F00202A2626268266838498E4240D04C
:10299800E1690A43E16842EA4102A568B5F5807F2A
:1029A80002D0012D3CD01D466769012F3BD07168CC
:1029B80021F46941294371602568AE682C4931408A
:1029C8001143A960A168B1F5807F01D0012902D126
:1029D8002369013B1B052568E96A21F470010B4353
:1029E800EB6223689968234B0B409A422CD0A36A68
:1029F80023F0120343F01003A362E36A43F00103D8
:102A0800E36201202EE0C36280F82430FFF728FE3D
:102A1800A8E7E169B1F5402FBBD14FF40021B8E731
:102A28004FF48075C0E731B9A169013945EA4131F0
:102A380041F40065BBE7A16A41F02001A162E16AA7
:102A480041F00101E162B2E70023E362A36A23F0E7
:102A5800030343F00103A36204E0A36A43F01003F5
:102A6800A3620120F8BD0120704700BF003C01406F
:102A7800FDF7E1FFFE0E1FFF0268D36823F0C003D5
:102A8800D360202380F8393070470268D36823F474
:102A98009073D3600268536923F0010353612023C4
:102AA80080F83A30704700002DE9F843054602687F
:102AB800136923F44053C1680B43136183680269A7
:102AC8001343426913430168CA6822F4B05222F0E2
:102AD8000C021343CB600268536923F44073816985
:102AE8000B4353610268594B9A4257D0FEF798FF3F
:102AF80000EB800000EB80006C68A400B0FBF4F4ED
:102B0800534FA7FB043464092601FEF789FF00EB45
:102B1800800000EB80006C68A400B0FBF4F9FEF7BD
:102B28007FFF00EB800000EB80006C68A400B0FB26
:102B3800F4F4A7FB043464094FF0640808FB149408
:102B480024013234A7FB0434640904F0F00434444B
:102B5800FEF766FF00EB800000EB80006E68B600B1
:102B6800B0FBF6F6FEF75CFF00EB800000EB8000A0
:102B78006B689B00B0FBF3F0A7FB0030400908FB33
:102B880010684FEA081808F13208A7FB0837C7F39E
:102B980043172B6827449F60BDE8F883FEF750FF72
:102BA80000EB800000EB80006C68A400B0FBF4F43C
:102BB800274FA7FB043464092601FEF741FF00EB09
:102BC800800000EB80006C68A400B0FBF4F9FEF70D
:102BD80037FF00EB800000EB80006C68A400B0FBBE
:102BE800F4F4A7FB043464094FF0640808FB149458
:102BF80024013234A7FB0434640904F0F00434449B
:102C0800FEF71EFF00EB800000EB80006E68B60048
:102C1800B0FBF6F6FEF714FF00EB800000EB800037
:102C28006B689B00B0FBF3F0A7FB0030400908FB82
:102C380010684FEA081808F13208A7FB0837C7F3ED
:102C480043172B6827449F60A6E700BF0038014060
:102C58001F85EB51704758B310B5044690F83930CA
:102C68000BB3242384F839302268D36823F4005343
:102C7800D3602046FFF718FF2268136923F49043B6
:102C880013612268536923F02A0353612268D368C9
:102C980043F40053D3600020E063202384F83930E4
:102CA80084F83A3010BD80F83830FFF7D3FFD8E702
:102CB8000120704738B590F83950EDB2202D31D148
:102CC800002931D0002A31D090F83830012B2FD08C
:102CD80013460446012280F8382001628384C384A5
:102CE8000025C563212280F83920026B11489062C3
:102CF800226B1148D062226B10481063226B556317
:102D080022680432206B00F07DF823686FF04002DF
:102D18001A6084F838502268536943F0800353617D
:102D2800284600E0022038BD0120FCE70120FAE730
:102D38000220F8E74B2D00087D2D0008892D00089A
:102D4800704708B5436A0268126812F0200F0CD168
:102D58000022DA8419684A6922F080024A611A68F6
:102D6800D36843F04003D36008BD1846FFF7E8FF77
:102D7800FAE7704708B5406AFFF7FBFF08BD7047E0
:102D880010B5446A23685A6994F83930DBB2212BAC
:102D980010D023685A6902F0400294F83A30DBB246
:102DA800222B11D0E36B43F01003E3632046FFF7B7
:102DB800E6FF10BD02F08002002AEAD00023E38477
:102DC8002046FFF759FEE4E7002AEBD00023E3850D
:102DD8002046FFF75AFEE5E770B4066CC56B012480
:102DE800B4406C60046863604368102B05D00368C6
:102DF80099600368DA6070BC704703689A6003687A
:102E0800D960F8E738B590F82040012C32D0012479
:102E180080F8204090F82140012C04D0002380F84D
:102E28002030022038BD0446022084F8210000200A
:102E3800A0632568286820F0010028602046FFF775
:102E4800CBFFE36A5BB12268136843F00E0313609B
:102E58002268136843F0010313600020E2E7226848
:102E6800136823F0040313602268136843F00A030D
:102E78001360EDE70220D5E70F4B1A6842F0010214
:102E88001A6059680D4A0A405A601A6822F084721A
:102E980022F480321A601A6822F480221A605A6872
:102EA80022F4FE025A604FF41F029A60044B4FF05E
:102EB80000629A60704700BF001002400000FFF8EF
:102EC80000ED00E02DE9F04186B040F60C04224602
:102ED80000212D4804F02CFD224600212B4804F047
:102EE80027FD2B4C40220021204604F021FD294BD0
:102EF8009A6942F004029A619A6902F00402009207
:102F0800009ADA6942F40032DA61DB6903F40033CB
:102F18000193019B204B23604CF6D13363604FF43F
:102F28008053A3600C2363610025E561A5612046F9
:102F3800FFF791FE042302930126049602230393CC
:102F48004FF00308CDF81480144F02A93846FFF754
:102F5800ADF90395049508230293CDF814800DEB81
:102F680003013846FFF7A2F92A4631462620FFF723
:102F7800A9F82620FFF7DAF82268D36843F020037F
:102F8800D36006B0BDE8F081D406002030190020D7
:102F98005C29002000100240004400400008014065
:102FA8002DE9F04186B040F60C04224600212E4857
:102FB80004F0BEFC224600212C4804F0B9FC2C4C3D
:102FC80040220021204604F0B3FC2A4B9A6942F0C3
:102FD80008029A619A6902F008020092009ADA6976
:102FE80042F48022DA61DB6903F480230193019BB8
:102FF800214B23604CF6D13363604FF48053A360B8
:103008000C2363610025E561A5612046FFF723FED7
:103018004FF48063029301260496022303934FF032
:103028000308CDF81480154F02A93846FFF73EF97A
:10303800039504954FF400630293CDF8148002A918
:103048003846FFF733F92A4631462720FFF73AF882
:103058002720FFF76BF82268D36843F02003D3607A
:1030680006B0BDE8F08100BF3C21002028100020F8
:10307800240F00200010024000480040000C0140CE
:103088002DE9F04F89B0884B9A6942F004029A61A1
:103098009A6902F004020192019A9A6942F00802C0
:1030A8009A619A6902F008020292029A9A6942F0B9
:1030B80010029A619B6903F010030393039B4FF07E
:1030C8000009CDF81890022607964FF0200ACDF88F
:1030D80010A0764B059304A97548FFF7E7F840233D
:1030E800049304A97248FFF7E1F84FF08008CDF87F
:1030F800108004A96E48FFF7D9F84FF4806404944F
:1031080004A96C48FFF7D2F84FF40063049304A9AC
:103118006848FFF7CBF84FF48055049504A9654833
:10312800FFF7C4F8CDF8149004950127069704A971
:103138006148FFF7BBF8CDF81890049604A95E48DB
:10314800FFF7B4F805974FF00409CDF8109004A9DB
:103158005748FFF7ABF8102504950DEB05015648C5
:10316800FFF7A4F8CDF810A00DEB05015248FFF7C2
:103178009DF80323059304970DEB05014D48FFF7D0
:1031880095F804970DEB05014B48FFF78FF84FF0C2
:10319800080BCDF810B00DEB05014648FFF786F88F
:1031A80004960DEB05014348FFF780F804950DEBF5
:1031B80005014048FFF77AF8CDF810A00DEB05019E
:1031C8003C48FFF773F8CDF810900DEB050139482E
:1031D800FFF76CF8CDF810B00DEB05013648FFF796
:1031E80065F8CDF810900DEB05013348FFF75EF850
:1031F8000596402304930DEB05012E48FFF756F87A
:10320800CDF810800DEB05012A48FFF74FF84FF471
:103218008079CDF810900DEB05012648FFF746F8A8
:10322800CDF810800DEB05012348FFF73FF8049710
:103238000DEB05011E48FFF739F804960DEB050163
:103248001B48FFF733F8CDF810900DEB05011A482D
:10325800FFF72CF84FF4007304930DEB05011648A3
:10326800FFF724F804940DEB05011348FFF71EF847
:103278004FF4005304930DEB05010D48FFF716F8C2
:103288004FF4804304930DEB05010948FFF70EF84E
:103298004FF4004304930DEB05010548FFF706F8CA
:1032A80009B0BDE8F08F00BF0010024000003110E7
:1032B800000C014000100140000801402DE9F04FCA
:1032C80099B0754B9A6942F400629A619A6902F45E
:1032D80000620192019A9A6942F400529A619B69CC
:1032E80003F400530293029B6C4EDFF8B891C6F8C2
:1032F8000090002474604FF02008C6F808804FF44E
:10330800FA6BC6F80CB034617461B4613046FEF7EC
:103318003BFD10231693179416A93046FEF76AFE54
:1033280060230F9310941194082712971394149400
:103338004FF40073159322460FA93046FEF776FD29
:1033480004220FA93046FEF771FD3A460FA9304610
:10335800FEF76CFD4FF4006308934FF48063099304
:103368000A94CDF82C800C940D940E940DEB080162
:103378003046FEF713FE4A4DDFF82CA1C5F800A031
:103388006C60C5F80880C5F80CB02C616C61AC6144
:103398002846FEF7F9FCCDF858808023179316A924
:1033A8002846FEF727FE04940523039303A928461D
:1033B800FEF763FC60230F931094119412971394F3
:1033C80014944FF40073159322460FA92846FEF76C
:1033D8002DFD04220FA92846FEF728FD3A460FA91D
:1033E8002846FEF723FD4FF4006308934FF48063EB
:1033F80009930A94CDF82C800C940D940E940DEB3F
:1034080008012846FEF7CAFDDAF8443023F40043E1
:10341800CAF84430D9F8443023F40043C9F844309A
:1034280021462846FEF77EFD04212846FEF77AFD50
:1034380039462846FEF776FD21462846FEF79CFDCC
:1034480004212846FEF798FD39462846FEF794FDE4
:1034580021463046FEF766FD04213046FEF762FD40
:1034680039463046FEF75EFD21463046FEF784FDBC
:1034780004213046FEF780FD39463046FEF77CFDD4
:103488002B6801221A633268136843F00103136042
:1034980019B0BDE8F08F00BF00100240E80F00200F
:1034A8009C290020002C0140003401402DE9F04304
:1034B80087B0434EB36943F40073B361B36903F44F
:1034C80000730093009B3F4C3F4B23604FF4807385
:1034D800A3600025E56065614FF44023E361656002
:1034E8004FF00509C4F810902046FFF733FA374A21
:1034F800536843F4802353604FF4C023059305A910
:103508002046FEF7A1FD4FF00108CDF810800E23EC
:103518000293CDF80C8002A92046FFF7A3F8029584
:103528000227039702A92046FFF79CF804970B2768
:1035380002970323039302A92046FFF793F80C236D
:1035480002930423039302A92046FFF78BF807236D
:10355800049310230293CDF80C9002A92046FFF79C
:1035680081F82268936843F4000343F480739360FE
:10357800936843EA08039360736943EA0803736135
:10358800736903EA08030193019B114B1D60C3F89B
:103598000490104A9A60104ADA6040F6A2221A6033
:1035A8001A6842EA08021A602A4641463846FEF777
:1035B80089FD3846FEF7BAFD07B0BDE8F08300BFC5
:1035C80000100240BC180020002401400000014007
:1035D800080002404C24014048290020F0B585B07D
:1035E800284B9A6942F480629A619B6903F480636C
:1035F8000093009B244C254B23604FF48073A360F9
:103608000023E36063614FF46022E2616360052692
:1036180026612046FFF79EF9012303930F220192AA
:10362800029301A92046FFF71DF80D2301930225F7
:10363800029501A92046FFF715F803950A2301937F
:103648000327029701A92046FFF70CF801950423E8
:1036580002930DEB03012046FFF704F807230393B9
:103668000197029601A92046FEF7FCFF23689A6895
:1036780042F480729A609A6842F001029A6005B03A
:10368800F0BD00BF00100240640F00200028014078
:1036980008B501F005FE80B208BD0000144B1B6898
:1036A8001333262B23D810B50024124B1C70124B51
:1036B8001C70072C06DC114B1C706420FEF7BEFF43
:1036C8000134F6E7002220210D48FEF7EAFE022128
:1036D8000B48FEF7DFFE0028F9D101E0FEF732FDC6
:1036E80002210748FEF7D6FE0028F9D0F6E7704712
:1036F800202B0020400400204C0400203C04002023
:10370800000801402DE9F04F89B0682422460021C5
:103718004A4804F00DF922460021494804F008F906
:103728004FF0000A83E0474E4FEA0A1806EB0807F5
:103738004FF0000946F808903B1D0793C7F804901E
:10374800342404FB0AF43D4BE21804923E4D688889
:10375800FDF7D2FA0590A888FDF7CEFA0690E8881A
:10376800FDF7CAFA08F1080B5E443849FDF7D0FBAB
:10377800029036490698FDF7CBFB0190334905982E
:10378800FDF7C6FB0090079B32463946049802F0C5
:103798000FFD28894742FDF7AFFA06463846FDF780
:1037A800AFFA32460146049E304602F091FC30469C
:1037B80002F0C1FC264E06EB080746F8089007F110
:1037C8000408C7F804901E4B1C446889FDF794FA56
:1037D8008146A889FDF790FA0490E889FDF78CFAEC
:1037E8005E441A49FDF794FB029018490498FDF7C6
:1037F8008FFB019015494846FDF78AFB0090434628
:1038080032463946204602F0D3FC288A4642FDF764
:1038180073FA05463046FDF773FA2A4601462046F4
:1038280002F056FC204602F086FC0AF1010ABAF1C1
:10383800010F7FF778AF09B0BDE8F08F902A00201C
:10384800DC290020D4030020FC2A00200000C84204
:10385800F40300202DE9F04700265FE0342505FB3E
:1038680006F5304F2F44304C6088FDF745FA824604
:10387800A088FDF741FA8046E088FDF73DFA2B491C
:10388800FDF746FB814629494046FDF741FB804646
:1038980026495046FDF73CFB4B4642460146384612
:1038A80002F0D4FB2089C0F10009FDF725FA804613
:1038B8004846FDF725FA42460146384602F008FC1C
:1038C8001B4B1D446089FDF717FA8146A089FDF757
:1038D80013FA0746E089FDF70FFA1449FDF718FBBC
:1038E800804612493846FDF713FB07460F494846FC
:1038F800FDF70EFB43463A460146284602F0A6FB72
:10390800208A4742FDF7F8F904463846FDF7F8F9EA
:1039180022460146284602F0DBFB0136012E9DDDDA
:10392800BDE8F087902A0020FC2A00200000C84249
:10393800DC29002030B587B0142101A802F02CFA48
:10394800142805D1BDF8042040F2D2439A420CD085
:1039580001AC0B4D0FCD0FC42B682360142101A8B7
:1039680002F06AF9074801F0B7F9074D01AC0FCC2E
:1039780028606960AA60EB602068286107B030BDE4
:1039880090A10008A4A10008FC2A002070B596B0F8
:1039980002240C94012610961023119313940025E9
:1039A80014954FF4601315930CA8FDF74DFD0F23E4
:1039B8000793089409954FF480630A930B95214661
:1039C80007A8FDF769FF01944FF44043039301A84A
:1039D800FEF772FDFEF71EF8084BA3FB00308009C6
:1039E800FEF7C2FB0420FEF7D5FB2A4631464FF00E
:1039F800FF30FEF767FB16B070BD00BFD34D6210F5
:103A08002DE9F04FD1B0FEF7F9FDAB4CA36943F0B7
:103A18000103A361A36903F001030B930B9B03202C
:103A2800FEF73EFB002211466FF00B00FEF74AFB43
:103A3800002211466FF00A00FEF744FB00221146EF
:103A48006FF00900FEF73EFB002211466FF00400FC
:103A5800FEF738FB002211466FF00300FEF732FB39
:103A6800002211466FF00100FEF72CFB0022012115
:103A78004FF0FF30FEF726FB904801250495002201
:103A88008F4BCDE902238AA3D3E90023CDE9002394
:103A980000228C4B0146243802F00AFC8A4B18603D
:103AA800FFF774FF636923F001036361FFF7E8FA26
:103AB800FFF704FCFFF7FAFCFFF790FD02F00AFE9F
:103AC80048220021814803F033FF2A4620218048FC
:103AD800FEF7E7FC7F48FEF79FFE7F48FEF79CFE57
:103AE80001F0E6F9FFF7EEF9FFF75AFAFFF722FFC0
:103AF800FFF708FE082405E0784B1C706420FEF7E9
:103B08009DFD013C002CF7DA0026744B1E70012243
:103B180004217348FEF7C5FC724801F0DDF81C96D5
:103B28001D96714A1AAB92E8030083E8030001F07E
:103B380007FF01F029FB6D4B188AFDF7DDF80746F2
:103B48006B4B01221A7002216148FEF7A3FC044660
:103B580007963546069600F026BC02F0C5FEFEF72D
:103B680067FD731D98420AD2624B1B68984700286C
:103B7800F3DDFFF78DFDC0B202F0C0FDF4E70023CE
:103B88005D4A13605D4A1360002C57D001F0CEFAED
:103B9800574B1B781BB95A4B00225A601A60584B76
:103BA8005968584A11601B685B42574A1360574B63
:103BB8001A68511C1960564BA3FB02135B09642158
:103BC80001FB1323002B00F0B482002C00F02B83A0
:103BD800B5F57A7F00F21E8302213D48FEF75AFCB4
:103BE800002800F03D83394B5B6913B9494B1B78BA
:103BF80013B1494B00221A60484B1E6848493046A9
:103C0800FDF770FA28B1474B1B681333262B40F297
:103C1800298345493046FDF765FA002800F05483AA
:103C28003F493046FDF77CFA002800F04D832B4BC6
:103C380005221A703D4B06221A704DE301F076F901
:103C48003B4B1B68E3B93B4B9B6913B9394B5B6B27
:103C5800B3B1394B5B8A13B1384B01221A6038482B
:103C680001F03AF8334B00221A765A769A76DA76C9
:103C780083F8342083F8352083F8362083F83720FA
:103C8800124B5B6933B10321002001F03BFA264651
:103C9800A0465AE00021084601F034FAF7E7082167
:103CA800304601F039FA274B032243F826205FE01B
:103CB8003333333333A3644000100240EC35002023
:103CC8000068804000805640F82A00202C2B0020F5
:103CD80000080140BC180020640F00203C040020AC
:103CE800000C0140BCA100085CA100084829002084
:103CF8004C04002018000020282B0020142B002042
:103D08002C040020600400205C040020180400201B
:103D18001F85EB511C040020502A00201C000020A5
:103D2800CCCC0642202B002000000C42400400208E
:103D380070040020E82B0020FC2A00203404002016
:103D4800C8A10008100000200136012E2EDCC6EBA9
:103D5800C6039A00924B1344D3F80A30002B9ED026
:103D68000421304601F0D8F98E4B032243F826206F
:103D7800C6EBC6039A008A4B1344B3F90730002BED
:103D8800B8BF5B42B3F5FA6F01DD4FF00108C6EB2F
:103D9800C6029300824AD35E002BB8BF5B4242F250
:103DA80028329342D0DD4FF00108CDE77E4B1B68E7
:103DB80043B17E4B5B8A2BB1B8F1000F24D07C4B0A
:103DC80000221A70784B1B6823B1784B5B8A002B52
:103DD8007FF4DCAE774B1B68079A934202D1744B91
:103DE8001B7823B9FFF78EFC724B1B680793714B46
:103DF8001B68022B00F08F81032B00F09881012BA8
:103E08007FF4C4AE264688E0654BD3F80A3023B960
:103E1800634BD3F82630002B56D0674B5E69002ED3
:103E28006FD1069B73B95E4BB3F900201C92B3F9AE
:103E38001C301D930123069304E00421304601F051
:103E48006BF90136012E31DC5C4B53F82600C6EBCA
:103E5800C6029300524AD35E50AA02EB860151F87B
:103E6800D02C9B1A03FB00F2554B83FB0203A3EBF8
:103E7800E273544A52F82620134451F8D82C93423E
:103E880003DC52429A42B8BF1A464F4B43F82620E9
:103E9800C6EBC6039A00424B1344D3F80A30002BF2
:103EA800CBD00C21304601F037F9CAE70023474A46
:103EB80013603F4A01211170454A136082E750227E
:103EC800414941F823200133012B1CDC3B4A52F8BD
:103ED8002300C3EBC3018A0031498A5E02FB00F26A
:103EE800304951F8231092FBF1F2364951F823106A
:103EF8000A44502AE3DC6FF04F018A42B8BF0A46F1
:103F0800DEE74346E0E7314B00221A60284B0122E6
:103F18001A70CDF8188055E70136012E3FF736AEF6
:103F28004FF034082B4B08FB0638404602F02EF8B9
:103F38000028F1D0DFF8B0B04FEA061A0BEB0A09F7
:103F4800254B53F82600FCF7DBFEC9F8040006EB06
:103F5800C6039A00214B13441869FCF7D1FE4BF8AD
:103F68000A00404602F01EF8D9F80800FDF7E2F80A
:103F78000346154A42F82600002ECDD1324618498C
:103F88001EA803F0D5FD1EA800F0A6FEC4E7154B39
:103F980003EB0618FCF7B4FEC8F80400A34678E063
:103FA800E82B00201000002034040020FC2A002008
:103FB8004C040020700400202C2B00200800002056
:103FC80056555555200400202C04002004000020DC
:103FD800502A0020902A00203C000020C8350020EC
:103FE800E8A10008F4030020D4030020A44B53F8F0
:103FF80026200244A34B9B689A4203DC5B4293420F
:10400800B8BF13469E4A42F82630002E67D00136C4
:10401800012E3FF7BBAD06EBC6039A009A4B13443B
:104028009869DFF870A24FEA06180AEB0809FCF74E
:1040380067FE01465AF80800FCF7AEFD4AF808008A
:10404800D9F80C300133C9F80C30904B1B782BB9D8
:1040580000204AF808000123C9F80C3034228C4BA0
:1040680002FB06330893184601F090FF0028CED0D3
:10407800844B53F8260080EAE072A2EBE0721B69D9
:104088009A4284DA834B03EB061300225A604FF0FE
:10409800010BDFF800A24FEA06190AEB09085AF8E3
:1040A80009300993D8F80C00FCF72AFE0146099854
:1040B800FCF72EFF4AF809000023C8F80C300898CE
:1040C80001F070FFD8F80800FDF734F88046BBF11E
:1040D800000F8BD06A4B002243F8262095E76D4AE3
:1040E8003301D118D1F804A0654951F82690D05869
:1040F800FDF720F802905046FDF71CF80190CDF826
:1041080000804B46324664491EA803F011FD1EA8E4
:1041180000F0E2FD7BE726467AE75A4A52F8231078
:10412800574A42F823100133012BF6DD2EE52346CA
:10413800FAE73846FCF7C0F94DA3D3E90023FCF7AA
:1041480013FA80468946554E308AFCF7D5FDFCF7B0
:10415800B3F949A3D3E90023FCF706FA02460B4654
:1041680040464946FCF74AF8FCF7C0FC07464C496C
:10417800FCF710FD4B49FCF717FE4B49FCF70CFD0B
:104188008046328A92B2494B9A60DF601861484A89
:10419800926812F4805F0CBF012200225A61DFF896
:1041A8002491B9F90010002000F08EFDB9F91C30F7
:1041B8005B4219B2012000F087FDDFF8C490B9F91D
:1041C8000410022000F080FDB9F90010032000F06F
:1041D8007BFDB18909B2042000F076FD3549364BE4
:1041E8001868FCF7E1FDFCF7A5FF01B2052000F017
:1041F8006BFD3846FCF79EFF01B2062000F064FD17
:104208004046FCF797FF01B2072000F05DFD00F083
:1042180061FDDAE40221002000F074FF0221012090
:1042280000F070FFD8E402212148FEF733F9002896
:104238003FF4D9AC214B1B68002B7FF4D4AC204B46
:104248001B68002B7FF4CFAC104B00221A700221A0
:104258001748FEF71FF90028F9D1FFF71FFAC2E443
:104268000024C0E4FFF71AFA36E000BFAFF300807D
:10427800AE47E17A14AEEF3F7B14AE47E17A843F54
:104288002C0400205C000020C83500204C040020CD
:10429800DC290020F4030020F0A1000848290020B0
:1042A80000E0CE44083748BE33330F422C2B0020A1
:1042B800000801400000C8421C00002068040020DB
:1042C80064040020E82B0020594B1B68002B40F3A6
:1042D8008A80013B564A1360564B1B68002BB8BFB7
:1042E8005B42322B06DC534B5B68002BB8BF5B424A
:1042F800322B7EDD504B00221A604F4B1B684F4A11
:1043080093420CD94E4A12784AB94D4A032111708A
:104318004C4A01211170464A4FF47A7111604A4A99
:1043280093420CD9464A12784AB9454A022111707B
:10433800444A012111703E4A4FF47A711160434A90
:1043480093425BD8424B1B68002B2CDD013B404A53
:104358001360404981FB0321DA17C2EBE1124FF4E5
:10436800C87101FB1232002A4ED0394B1B68B3F5D5
:10437800FA6F09DC324A03211170324A01211170A7
:104388002B4A4FF47A711160B3F57A7F09DC2C4A15
:10439800022111702B4A01211170254A4FF47A71BC
:1043A8001160002B3EDD01352B4E306801F0E6FF31
:1043B80010AB0EAA0CA9306801F0B2FFDDE90C01C0
:1043C800FCF76CFB254E3060DDE90E01FCF766FB5F
:1043D8007060DDE91001FCF761FBB060FEF728F9B9
:1043E8000646FFF7BCBB0023154A1370154A137025
:1043F80072E7114A1368013313607EE70E4B0022FF
:104408001A60FFF74BF99DE7124A82FB0312DB178C
:10441800C3EBA212124912A803F08AFB12A800F0FB
:104428005BFCA2E70A4B00221A60FFF737F9BAE7EC
:10443800140400202C040020502A00206A040100E3
:104448003C04002040040020751E01008038010053
:10445800280400201F85EB51F82A0020442A002058
:1044680008A20008000000002DE9F04782B072B6EB
:10447800A14B1B685A6AA14BD3E90001A04B9B686A
:1044880003F0E003DB43C3F342138DF804309D4B84
:104498009B6803F4E053DB43C3F382238DF80530B4
:1044A80062B60B0442EA004843EA104900240DE0D2
:1044B800390104EBC402944B03EB8203DA6900234D
:1044C800300141EA1671FCF75BFE0134012C1DDC5A
:1044D80004EB44058D4B03EB0515D5E90423B8EB34
:1044E800020669EB0307D5F82CA06FF009024FF01C
:1044F800FF3330463946FCF743FE5044E862EA6A27
:10450800D317B242BB41D3DAEE62D1E7804B022225
:104518005A60804B1B68B3F57A7FC0F223817E4BCB
:104528001B687E4CA4FB0324A4094FF47A7202FB97
:1045380014341CBB7A4D2868FBF7BEFF68A3D3E987
:104548000023FCF711F806460F46764B9889FCF7CE
:10455800D3FB7549FCF728FCFBF7AEFF62A3D3E950
:104568000023FCF701F802460B4630463946FBF7B4
:1045780045FEFCF7BBFA28606C4B5860694B5B89B9
:104588006B4A15685B1B002BC0F22181654B58896B
:10459800401BFCF7B5FBFBF78FFF55A3D3E90023BE
:1045A800FBF7E2FFFCF7A2FA07465E4B1B89614A5C
:1045B80012689B1A002BC0F210815A4B1889801A76
:1045C800FCF79EFBFBF778FF49A3D3E90023FBF731
:1045D800CBFFFCF78BFA0646544B9F611863514B8F
:1045E8005B895B1B002BC0F2FE804E4B5889401B39
:1045F800DFF83881D8F81C90FCF782FB4946FCF7B5
:10460800CBFAC8F81C00474B5B895B1B002BC0F238
:10461800EE80444B5889401B444DD5F83480FCF754
:104628006FFB4146FCF7B8FA6863B4F5FA7F00F00F
:10463800E28041493846FCF773FD40B93F4B1B689F
:10464800052B04D83E4B1B78002B40F0F6803D4AE2
:10465800536C23F40043536437493046FCF760FD3C
:1046680040B9364B1B68052B04D8354B1B78002BFB
:1046780040F0E980344A536C23F4004353649DF8B6
:1046880004303248C15C0231314B83FB014202EBFA
:104698004202A1EB42022F490A609DF80520825C84
:1046A800023283FB020303EB4303A2EB43032A4AD0
:1046B800136009681B488388284A12689A1AC388B5
:1046C800274800681B1A052900F20E81DFE811F05F
:1046D800C100FC00FF00020105010801AFF30080E2
:1046E800AE47E17A14AEEF3F7B14AE47E17A843FE0
:1046F8007B14AE47E17A943F1036002078040020FE
:10470800000C014000100140C83500206835002029
:10471800000002405004002044040020D34D6210E1
:104728001C0000204829002017B9CE3C2C2B002063
:104738002000002024000020000070410400002018
:104748004C04002000340140002C01401CA2000849
:10475800ABAAAA2A540400205804002028000020EC
:104768002C00002001339C4A13609C4A90889C4985
:104778000B68034403EBD3735B100B60D088994933
:104788000B68034403EBD3735B100B6010889649E6
:104798000B68034403EBD3735B100B605088934999
:1047A8000B68034403EBD3735B100B60508990498B
:1047B8000B68034403EBD3735B100B6011898D4ABC
:1047C80013680B4403EBD3735B10136069E2834BEC
:1047D8005889281AFCF794FADDE6804B1889101AD4
:1047E800FCF78EFAEEE67D4B5889281A00E77B4BDA
:1047F8005889281A10E7E869FBF75EFE74A3D3E925
:104808000023FBF7B1FE00227B4BFBF7D7FFFCF739
:104818006DF92862686BFBF74FFE6DA3D3E900239F
:10482800FBF7A2FE0022744BFBF7C8FFFCF75EF90A
:10483800A8630023EB616B63FBE6704A536C43F497
:104848000043536408E76E4A536C43F400435364CF
:1048580015E7D31A6B4A1360604A9188604B1B684E
:10486800C91A694B5962D1885E480068091A996269
:1048780064490968D96211885B480068091AD963D4
:1048880052885A490968521A1A6400225A645F4ABF
:104898001368013313605E4A14684CB35D4AA2FB87
:1048A8000312120B5C4909680131B2FBF1F001FBFC
:1048B8001022EAB9B3FBF4F204FB1233EBB910216E
:1048C8005648FDF7F4FD18E04E4B1A60C4E74D4B0F
:1048D8001A60C1E74B4A1360BEE74A4A1360BBE758
:1048E8009B1A484A1360B7E7464B00221A60B3E7A1
:1048F800002210214948FDF7D4FD494B1868494B5F
:104908001B68052B28D8DFE803F00312171B1F23A9
:10491800C0F1000C04461846434B1968434B1B680A
:10492800052B4ED8DFE803F01D3B3F43474A0446BA
:1049380040424FF0000CEFE7844640420024EBE78A
:10494800444284460020E7E744424FF0000CE3E786
:10495800C0F1000C0024DFE74FF0000C644660460D
:10496800DAE74D420F4619462D4B1B68002B40F3E2
:10497800A0802F4B1E682B4B1B6805332D4A82FBEA
:1049880003E2A2EBE37202EB4202A3EB4202052A26
:1049980000F2C180DFE802F05074797E83880F4608
:1049A80049420025E0E70D4649420027DCE74F422F
:1049B8000D460021D8E74F420025D5E74D42002794
:1049C800D2E700252F462946CEE700BFAFF3008087
:1049D8007B14AE47E17A943F500400204829002018
:1049E800280000202C000020300000203400002087
:1049F800200000202400002000408F4000340140A7
:104A0800002C0140480400202C2B002044040020E6
:104A18003C0400205917B7D1400400200008014089
:104A28005C04002054040020600400205804002086
:104A380064040020ABAAAA2AC6F10008B6461646A6
:104A4800304474440CEB0806974B1B68002B40F36A
:104A58009880964B1B68964A126802F1050C954A95
:104A680082FB0CE2A2EBEC7202EB4202ACEB4202DC
:104A7800052A00F2BA80DFE802F0566B70757A7F7B
:104A8800B64676424FF00008DAE7B04676424FF075
:104A9800000ED5E7C6F1000EB0460026D0E7C6F1F5
:104AA800000E4FF00008CBE7C6F100084FF0000EEB
:104AB800C6E7814B1E68C6F1000E804B1A680132AA
:104AC8007C4B83FB0283A3EBE27303EB4303A2EB70
:104AD8004303052B1AD8DFE803F00323060A0E1454
:104AE800B0461E46ACE7F0464FF0000EA8E7F04689
:104AF800B6460026A4E7334676469E464FF00008A1
:104B08009EE7B04676464FF0000E99E74FF0000852
:104B1800C646464694E74FF00008C64646468FE725
:104B28004FF000088CE7C3F100089E46134619446D
:104B380007EB0E0205EB080340F2DE35A8425CDC09
:104B4800A5F2BC75A842B8BF284600F57A7556E0AC
:104B58009E465B424FF00008E9E798465B424FF0FB
:104B6800000EE4E7C3F1000E98460023DFE7C3F127
:104B7800000E4FF00008DAE7C3F100084FF0000E0E
:104B8800D5E74A4B1B68C3F1000E494A1268013247
:104B9800DFF820C18CFB028CACEBE27C0CEB4C0CFC
:104BA800A2EB4C0CBCF1050F1AD8DFE80CF003237C
:104BB800060A0E1498466346B9E7F0464FF0000E11
:104BC800B5E7F0469E460023B1E71A467346964677
:104BD8004FF00008ABE7984673464FF0000EA6E783
:104BE8004FF00008C6464346A1E74FF00008C64606
:104BF80043469CE74FF0000899E740F2C6753048F5
:104C0800456340F2DE30844207DCA0F2BC70844287
:104C1800B8BF044604F57A7401E040F2C674284827
:104C2800846340F2DE30864207DCA0F2BC70B042FA
:104C3800B8BF304600F57A7001E040F2C670204CEB
:104C4800E06340F2DE30814207DCA0F2BC708142B2
:104C5800B8BF014601F57A7101E040F2C671194802
:104C6800416340F2DE318A4207DCA1F2BC718A421C
:104C7800B8BF0A4602F57A7201E040F2C6721149DD
:104C88008A6340F2DE32934207DCA2F2BC7293429E
:104C9800B8BF134603F57A7301E040F2C673094AB8
:104CA800D36302B0BDE8F0876004002068040020E8
:104CB80058040020ABAAAA2A640400205404002047
:104CC80000340140002C0140014B23F810107047BC
:104CD800D82B00207047000010B50446FBF780FA77
:104CE80082B221460148FDF7E5FF10BD5C2900208E
:104CF800034B1A68D36843F08003D36001207047E0
:104D08005C290020034B1A68D36843F08003D36002
:104D180001207047240F0020D0F80038D0F804088C
:104D2800181A00D4704700F58060FBE738B50446D0
:104D38000D46FFF7F1FF40F2FD33984210DCD4F83E
:104D4800003824F81350D4F8003801335A42C3F31A
:104D58000903C2F3090258BF5342C4F8003838BDEA
:104D6800D4F808380133C4F80838F8E70246D0F810
:104D78000018D0F80438994211D0D0F8043830F827
:104D8800130080B2D2F8043801335942C3F309033F
:104D9800C1F3090158BF4B42C2F8043870470020DC
:104DA8007047000010B50446036813F0800F04D163
:104DB800236813F0200F10D110BD0B48FFF7ACFF8C
:104DC80020B9E36823F0C003E360F1E70648FFF782
:104DD800CDFFC0F308006060EAE76168C1F308012D
:104DE8000248FFF7A3FFE7E7D406002030190020A8
:104DF80010B50446036813F0800F04D1236813F03C
:104E0800200F10D110BD0B48FFF786FF20B9E368CB
:104E180023F0C003E360F1E70648FFF7A7FFC0F3FC
:104E280008006060EAE76168C1F308010248FFF71B
:104E38007DFFE7E73C2100202810002008B518B1C5
:104E48000348FFF769FF08BD0248FFF765FFFAE767
:104E5800281000203019002008B518B10348FFF7C2
:104E68005BFF08BD0248FFF757FFFAE73C21002027
:104E7800D406002010B50C4620B121460348FFF7A0
:104E880055FF10BD0248FFF751FFF6E73C2100200F
:104E9800D406002008B518B10348FFF767FF08BD1E
:104EA8000248FFF763FFFAE72810002030190020B6
:104EB80008B5054B002119605960996038220348EC
:104EC80002F036FD08BD00BF842C0020E82B00202E
:104ED80008B510B1FFF716FF08BDFFF709FFFBE79C
:104EE8002DE9F04180460F4615461E46FFF7B4FFF0
:104EF8002844B0F57F7F16DC002403E04046FFF726
:104F0800B9FF0134AC4208DA395D002EF6D06B1EC9
:104F1800A342F3D141F48071F0E74046FFF7D8FF90
:104F28000120BDE8F0814FF0FF30FAE7F0B58DB011
:104F3800FDF77EFB0646002430E00CAB03EB840350
:104F480053F8083C132B46DC00210F4617F4807FEA
:104F580001D0092964DCC4EBC4039A00664B1344EE
:104F6800D3F80E30002B07DDC4EBC4029100624A6F
:104F78000A44013BC2F80E30C4EBC4039A005E4BEE
:104F88001344D3F80A30002B07DDC4EBC4029100A8
:104F9800594A0A44013BC2F80A300134012C00F393
:104FA800A8802046FFF74AFF0CAB03EB840343F8C5
:104FB800080CA0F114070025BD42BEDA2046FFF711
:104FC80069FF0CAB03EB840252F8083C013B42F842
:104FD800083C0135F0E7002502E013291ADC0D46EC
:104FE8002046FFF757FF07B2002F17DBA200111961
:104FF8008B002B44414921F81370691C224493000B
:105008000CAA13442B4403F8300C10F4807FE4D02E
:105018000929E2DD3A4B43F8241097E72946F9E7D6
:10502800354DE3001B1B98002A1817790A3904EB41
:10503800840C4FEA8C0319446944D1F800C04B68CA
:1050480045F800C053600989134623F8081F00215A
:105058000A209871D971197259721379552B13D086
:10506800AA2B9AD1C4EBC4039A00234B1344D3F858
:105078000A30002B91DDC4EBC40291001E4A0A4499
:10508800013BC2F80A3088E7AA2FE9D1E200121BD7
:1050980091002A460A44114631F9100B4880002035
:1050A8000A259572D072107350734A687AB1B21A91
:1050B800FB3A40F2D4618A4210D8C4EBC402910092
:1050C8000D4A0A440125157650769076D076C4EBC1
:1050D800C4029100084A0A445661C1E7C4EBC401FE
:1050E8008A000549114400220A764A768A76CA76E9
:1050F800EDE70DB0F0BD00BFE82B0020282C002004
:10510800202C002000EB40004200024B1344597051
:10511800704700BF842C002000EB40004200024B87
:1051280013445971704700BF842C002038B50C22F5
:105138001349144802F0E0FB00B938BD104C0123B4
:10514800062221460020FFF7CBFE01230622214636
:105158000020FFF7C5FEA51D012306222946184693
:10516800FFF7BEFE0123062229461846FFF7B8FEC0
:10517800044B20686168A268186059609A60DCE78F
:10518800842C0020782C0020F0B587B03B4D4FF4DC
:10519800836632460021284602F0CAFB384C324664
:1051A8000021204602F0C4FB4FF0FF33C5F8083455
:1051B800C4F80834012704970323059304230293B2
:1051C800304B039302A93048FDF770F82F4EF3696E
:1051D8003B43F361F3693B400093009B2C4D4FF038
:1051E80080432B6040F241336B600024AC604FF683
:1051F800FF73EB602C616C61AC612846FCF7AAFD7B
:105208002846FCF72CFD03970494022305934FF4DA
:105218000073029302A91F48FDF748F8F36943F0A9
:105228000203F361F36903F002030193019B1A4D32
:105238001A4B2B6040F605536B60AC60EF602C6135
:105248006C61AC612846FCF785FD2846FCF707FD34
:105258002A68D3683B43D360224621461D20FCF7C9
:1052680031FF1D20FCF762FF224621460820FCF78B
:1052780029FF0820FCF75AFF07B0F0BD902C00204A
:10528800A830002000003110000C0140001002403E
:10529800C034002000100140003500200004004008
:1052A8000D4BD3F80024D3F804349A4210D00A4A9C
:1052B800D2F80434D05CD2F8043401335942C3F331
:1052C8000903C1F3090158BF4B42C2F804347047BF
:1052D8004FF0FF30704700BF902C0020094BD3F8E7
:1052E8000024D3F804349A4209D0064BD3F80004BA
:1052F800D3F80434C01A03D500F580607047002045
:10530800704700BF902C0020124AD2F80034D2F81F
:1053180004249B1A14D440F2FD32934213DC0D4A44
:10532800D2F80034D054D2F8003401335942C3F3D0
:105338000903C1F3090158BF4B42C2F80034704752
:1053480003F58063E7E7034AD2F814340133C2F85F
:1053580014347047A830002070B506460D46104A30
:10536800D2F80034D2F804249B1A0CD42B4440F20F
:10537800FD3293420ADC0024AC420EDA305DFFF7BE
:10538800C3FF0134F8E703F58063EFE7044AD2F876
:1053980014340133C2F814340025284670BD00BF08
:1053A800A830002000000000F8B506460F460D465C
:1053B8000AE004F580640FE021463046FFF7CCFF91
:1053C8002D1B2644002D0EDC15B3154BD3F80044D5
:1053D800D3F80434E41AECD4C4F57F740134A5423C
:1053E800EADC2C46E8E72046AC42A8BF2846FBF793
:1053F80087FCFBF761F808A3D3E90023FBF7B4F8AF
:10540800FBF774FBFBF796FE0230FDF717F9DBE7B5
:105418003846F8BDAFF30080ABAAAAAAAAAAF03F03
:10542800A8300020F0B4464B9D68C5F38005454B75
:105438001B685C6A444B1C60444BD3F80C34E31A79
:1054480018D4981C19D4C010552B05DD3F4B6FF0AC
:105458000102C3F808240A203C4BD3F8083413F19E
:10546800020F0CD0394BD3F80834B3F1FF3F4BDBB4
:10547800002125E003F58033E3E70730E3E7334B0A
:1054880093F81034002BEDD1304B4FF0FF32C3F8B6
:105498000824D3F8002400219954E3E700272B4B74
:1054A800D3F800649A5D3A439A55284BD3F80824F8
:1054B8000132C3F80824D3F80834072B13DC013170
:1054C800884221DD214BD3F80834002BEDDB1F4B3C
:1054D800D3F800649A5D52089A5593F81034002B5B
:1054E800DCD08027DBE7194AD2F80034D2F804244C
:1054F8009B1A10D440F2FD3293420FDD134AD2F8C2
:1055080014340133C2F81434104B83F81054C3F820
:105518000C44F0BC704703F58063EBE70B4AD2F804
:10552800003401335942C3F30903C1F3090158BFD9
:105538004B42C2F800346FF00103C2F80834E3E7C5
:10554800000C0140C03400206C040020902C002086
:1055580008B5414B1B681A6912F0010F02D06FF0B1
:1055680001021A613D4BD3F80024D3F804349A425F
:1055780064D03A4AD2F80434D35CDBB2D2F80824B7
:10558800B2F1FF3F22D0354AD2F80824072A31DC8D
:10559800324AD2F80824134113F0010F23D0012214
:1055A8004FF400712E48FCF77CFF2C4AD2F80834DF
:1055B8000133C2F808342B4B1B685B6A2A4AD2F8BD
:1055C8000C249B1A41D44D2B42DC08BD00224FF419
:1055D80000712348FCF765FF204AD2F808340133EC
:1055E800C2F80834E7E700224FF400711C48FCF7C2
:1055F80058FFDAE7194BD3F80834082B06DC0122E8
:105608004FF400711648FCF74CFFCEE701224FF427
:1056180000711348FCF745FF104AD2F804340133EF
:105628005942C3F30903C1F3090158BF4B42C2F8F9
:1056380004346FF00103C2F80834B6E701224FF4CE
:1056480000710748FCF72DFFB5E703F58033BAE78B
:10565800FFF7E8FEB9E700BF00350020A8300020BA
:1056680000100140C0340020902C00207047704783
:10567800074B1969074A116019695869091A916035
:10568800596B5160596B9B6BCB1AD360704700BF45
:10569800C835002040350020034A1168034B596182
:1056A80052689A63704700BF40350020C835002013
:1056B800074B1968074A11601968D868091A916078
:1056C800596A5160596A1B6BCB1AD360704700BF87
:1056D800C835002050350020034A1168034BD960B3
:1056E80052681A63704700BF50350020C835002043
:1056F80008B5084B1B7803B108BD074A1169074B69
:105708001960526B5A60064B00221A605A60FDF706
:10571800F9FFF1E74C040020C83500203C000020C8
:105728005C00002008B5FFF7E3FF054B01221A7063
:10573800044B03221A60044B00221A6008BD00BF04
:105748004C040020700400200400002008B50E4B13
:105758001B68012B02D10D4B1B7823B90A4B012280
:105768001A60FFF7C5FF094B01221A70084B002287
:105778001A6008490868084B1A6802441A604968A0
:105788005A680A445A6008BD700400204C0400207E
:1057980004000020603500203C00002000B5A1B0C6
:1057A8000D4B1A8840F2D2439A420DD00B496846F5
:1057B80002F0BEF96846FFF78FFA074B40F2D24273
:1057C8001A8021B05DF804FB1421034800F034FA74
:1057D8000348FFF781FAF4E7FC2A002024A2000816
:1057E8005CA2000808B5FEF735F808BD38B50446D0
:1057F8004378423B152B00F29580DFE803F07F9356
:1058080093939393939393939393939393933693BD
:1058180086939374474B03EB45131B6903B1984771
:10582800444B03EB4513D3F80A30002104E013F886
:10583800010B6218D07001313E4A02EB4512927B8F
:105848008A42F4DC02322270204601F01FF8394BFC
:1058580003EB45135B6903B19847162D54D1022316
:105868002370204601F012F84EE00025152DF4D8DB
:105878006B01304AD25CA3789A42CBD00135F5E768
:105888002C4B03EB45139B6903B19847294B03EB5A
:105898004513D3F80A30002204E0A118C97803F8A8
:1058A800011B0132234901EB4511897B914203DD3C
:1058B800217802399142F0DC032323700123E3703D
:1058C800204600F0E3FF1B4B03EB4513DB6903B1F4
:1058D8009847162D18D1032323700023E370204620
:1058E80000F0D4FF10E00025152DF2D86B01114A05
:1058F800D25CA3789A42C3D00135F5E74FF4FA7029
:10590800FCF79CFEFCF71EFC38BD05210A48FFF792
:1059180023FD74236370204600F0B8FF204600F092
:10592800B5FFF1E73F2343700123037000F0AEFF9A
:10593800EAE700BF840000206CA200080000000015
:1059480070B582B0304C48220021204601F0F0FFAB
:105958002E4D60220021284601F0EAFF4FF0FF3368
:10596800AB620126AE652A4B1868FAF7A5FD24A399
:10597800D3E90023FAF7F8FD0022264BFAF71EFFB9
:10598800FBF7B4F8A060E062234BDA6942F0040246
:10599800DA61DB6903F004030193019B1F4C204B80
:1059A80023604FF4A07363600025A5604FF6FF7372
:1059B800E36025616561A5612046FCF7CBF92046C7
:1059C800FCF74DF92268D3683343D3602A46314641
:1059D8001E20FCF777FB1E20FCF7A8FB2A460321B4
:1059E8001720FCF76FFB1720FCF7A0FB2A460321C2
:1059F8002820FCF767FB2820FCF798FB02B070BD55
:105A0800EA2E4454FB210940C8350020683500209F
:105A18004803002000805640001002401036002045
:105A2800000800402DE9F04F83B072B65B4B1B684D
:105A3800D3F824B05A4BD3E900675A4B9B6803F05C
:105A4800E003DB43C3F34213574AD370574B9B68B9
:105A580003F4E053DB43C3F3822382F8333062B6A6
:105A6800002414E0E20022449100514B0B441A6ACE
:105A780001321A626200224411014B4B0B44DA785E
:105A8800D2B21A71D3E90201C3E904010134012C2D
:105A980000F38180620022441101434B0B441A79C0
:105AA800D2B2DB78DBB29A42F0D03F4B0B441B7981
:105AB800002BDFD03C4D0D4405236B623B044BEAC1
:105AC800064843EA1649C5E90289D5E90201D5E93C
